{
  "_format": "hh-sol-artifact-1",
  "contractName": "Splitwise",
  "sourceName": "contracts/mycontract.sol",
  "abi": [
    {
      "inputs": [
        {
          "internalType": "address",
          "name": "",
          "type": "address"
        },
        {
          "internalType": "address",
          "name": "",
          "type": "address"
        }
      ],
      "name": "IOUs",
      "outputs": [
        {
          "internalType": "uint32",
          "name": "",
          "type": "uint32"
        }
      ],
      "stateMutability": "view",
      "type": "function"
    },
    {
      "inputs": [
        {
          "internalType": "address",
          "name": "creditor",
          "type": "address"
        },
        {
          "internalType": "uint32",
          "name": "amount",
          "type": "uint32"
        },
        {
          "internalType": "uint32[]",
          "name": "cycle",
          "type": "uint32[]"
        },
        {
          "internalType": "uint32",
          "name": "cycleAmount",
          "type": "uint32"
        },
        {
          "internalType": "bool",
          "name": "addCreditor",
          "type": "bool"
        }
      ],
      "name": "add_IOU",
      "outputs": [],
      "stateMutability": "nonpayable",
      "type": "function"
    },
    {
      "inputs": [
        {
          "internalType": "address",
          "name": "",
          "type": "address"
        },
        {
          "internalType": "uint256",
          "name": "",
          "type": "uint256"
        }
      ],
      "name": "creditors",
      "outputs": [
        {
          "internalType": "address",
          "name": "",
          "type": "address"
        }
      ],
      "stateMutability": "view",
      "type": "function"
    },
    {
      "inputs": [
        {
          "internalType": "address",
          "name": "debtor",
          "type": "address"
        },
        {
          "internalType": "address",
          "name": "creditor",
          "type": "address"
        }
      ],
      "name": "lookup",
      "outputs": [
        {
          "internalType": "uint32",
          "name": "ret",
          "type": "uint32"
        }
      ],
      "stateMutability": "view",
      "type": "function"
    }
  ],
  "bytecode": "0x608060405234801561001057600080fd5b50610de9806100206000396000f3fe608060405234801561001057600080fd5b506004361061004c5760003560e01c8063713584a614610051578063b2c89d5014610081578063d674b8b1146100b1578063f39cada8146100cd575b600080fd5b61006b60048036038101906100669190610920565b6100fd565b604051610078919061097f565b60405180910390f35b61009b60048036038101906100969190610920565b610193565b6040516100a8919061097f565b60405180910390f35b6100cb60048036038101906100c69190610b57565b6101c5565b005b6100e760048036038101906100e29190610c24565b610860565b6040516100f49190610c73565b60405180910390f35b60008060008473ffffffffffffffffffffffffffffffffffffffff1673ffffffffffffffffffffffffffffffffffffffff16815260200190815260200160002060008373ffffffffffffffffffffffffffffffffffffffff1673ffffffffffffffffffffffffffffffffffffffff16815260200190815260200160002060009054906101000a900463ffffffff16905092915050565b60006020528160005260406000206020528060005260406000206000915091509054906101000a900463ffffffff1681565b836000803373ffffffffffffffffffffffffffffffffffffffff1673ffffffffffffffffffffffffffffffffffffffff16815260200190815260200160002060008773ffffffffffffffffffffffffffffffffffffffff1673ffffffffffffffffffffffffffffffffffffffff16815260200190815260200160002060006101000a81548163ffffffff021916908363ffffffff160217905550801561030657600160003373ffffffffffffffffffffffffffffffffffffffff1673ffffffffffffffffffffffffffffffffffffffff168152602001908152602001600020859080600181540180825580915050600190039060005260206000200160009091909190916101000a81548173ffffffffffffffffffffffffffffffffffffffff021916908373ffffffffffffffffffffffffffffffffffffffff1602179055505b600033905060005b84518163ffffffff161015610857576000600160008473ffffffffffffffffffffffffffffffffffffffff1673ffffffffffffffffffffffffffffffffffffffff168152602001908152602001600020868363ffffffff168151811061037757610376610c8e565b5b602002602001015163ffffffff168154811061039657610395610c8e565b5b9060005260206000200160009054906101000a900473ffffffffffffffffffffffffffffffffffffffff1690508463ffffffff166000808573ffffffffffffffffffffffffffffffffffffffff1673ffffffffffffffffffffffffffffffffffffffff16815260200190815260200160002060008373ffffffffffffffffffffffffffffffffffffffff1673ffffffffffffffffffffffffffffffffffffffff16815260200190815260200160002060009054906101000a900463ffffffff1663ffffffff16101561046757600080fd5b846000808573ffffffffffffffffffffffffffffffffffffffff1673ffffffffffffffffffffffffffffffffffffffff16815260200190815260200160002060008373ffffffffffffffffffffffffffffffffffffffff1673ffffffffffffffffffffffffffffffffffffffff16815260200190815260200160002060008282829054906101000a900463ffffffff166105019190610cec565b92506101000a81548163ffffffff021916908363ffffffff16021790555060008060008573ffffffffffffffffffffffffffffffffffffffff1673ffffffffffffffffffffffffffffffffffffffff16815260200190815260200160002060008373ffffffffffffffffffffffffffffffffffffffff1673ffffffffffffffffffffffffffffffffffffffff16815260200190815260200160002060009054906101000a900463ffffffff1663ffffffff160361084057858263ffffffff16815181106105d1576105d0610c8e565b5b602002602001015163ffffffff1660018060008673ffffffffffffffffffffffffffffffffffffffff1673ffffffffffffffffffffffffffffffffffffffff1681526020019081526020016000208054905061062d9190610d24565b146107bb57600160008473ffffffffffffffffffffffffffffffffffffffff1673ffffffffffffffffffffffffffffffffffffffff16815260200190815260200160002060018060008673ffffffffffffffffffffffffffffffffffffffff1673ffffffffffffffffffffffffffffffffffffffff168152602001908152602001600020805490506106bf9190610d24565b815481106106d0576106cf610c8e565b5b9060005260206000200160009054906101000a900473ffffffffffffffffffffffffffffffffffffffff16600160008573ffffffffffffffffffffffffffffffffffffffff1673ffffffffffffffffffffffffffffffffffffffff168152602001908152602001600020878463ffffffff168151811061075357610752610c8e565b5b602002602001015163ffffffff168154811061077257610771610c8e565b5b9060005260206000200160006101000a81548173ffffffffffffffffffffffffffffffffffffffff021916908373ffffffffffffffffffffffffffffffffffffffff1602179055505b600160008473ffffffffffffffffffffffffffffffffffffffff1673ffffffffffffffffffffffffffffffffffffffff16815260200190815260200160002080548061080a57610809610d58565b5b6001900381819060005260206000200160006101000a81549073ffffffffffffffffffffffffffffffffffffffff021916905590555b87925050808061084f90610d87565b91505061030e565b50505050505050565b6001602052816000526040600020818154811061087c57600080fd5b906000526020600020016000915091509054906101000a900473ffffffffffffffffffffffffffffffffffffffff1681565b6000604051905090565b600080fd5b600080fd5b600073ffffffffffffffffffffffffffffffffffffffff82169050919050565b60006108ed826108c2565b9050919050565b6108fd816108e2565b811461090857600080fd5b50565b60008135905061091a816108f4565b92915050565b60008060408385031215610937576109366108b8565b5b60006109458582860161090b565b92505060206109568582860161090b565b9150509250929050565b600063ffffffff82169050919050565b61097981610960565b82525050565b60006020820190506109946000830184610970565b92915050565b6109a381610960565b81146109ae57600080fd5b50565b6000813590506109c08161099a565b92915050565b600080fd5b6000601f19601f8301169050919050565b7f4e487b7100000000000000000000000000000000000000000000000000000000600052604160045260246000fd5b610a14826109cb565b810181811067ffffffffffffffff82111715610a3357610a326109dc565b5b80604052505050565b6000610a466108ae565b9050610a528282610a0b565b919050565b600067ffffffffffffffff821115610a7257610a716109dc565b5b602082029050602081019050919050565b600080fd5b6000610a9b610a9684610a57565b610a3c565b90508083825260208201905060208402830185811115610abe57610abd610a83565b5b835b81811015610ae75780610ad388826109b1565b845260208401935050602081019050610ac0565b5050509392505050565b600082601f830112610b0657610b056109c6565b5b8135610b16848260208601610a88565b91505092915050565b60008115159050919050565b610b3481610b1f565b8114610b3f57600080fd5b50565b600081359050610b5181610b2b565b92915050565b600080600080600060a08688031215610b7357610b726108b8565b5b6000610b818882890161090b565b9550506020610b92888289016109b1565b945050604086013567ffffffffffffffff811115610bb357610bb26108bd565b5b610bbf88828901610af1565b9350506060610bd0888289016109b1565b9250506080610be188828901610b42565b9150509295509295909350565b6000819050919050565b610c0181610bee565b8114610c0c57600080fd5b50565b600081359050610c1e81610bf8565b92915050565b60008060408385031215610c3b57610c3a6108b8565b5b6000610c498582860161090b565b9250506020610c5a85828601610c0f565b9150509250929050565b610c6d816108e2565b82525050565b6000602082019050610c886000830184610c64565b92915050565b7f4e487b7100000000000000000000000000000000000000000000000000000000600052603260045260246000fd5b7f4e487b7100000000000000000000000000000000000000000000000000000000600052601160045260246000fd5b6000610cf782610960565b9150610d0283610960565b9250828203905063ffffffff811115610d1e57610d1d610cbd565b5b92915050565b6000610d2f82610bee565b9150610d3a83610bee565b9250828203905081811115610d5257610d51610cbd565b5b92915050565b7f4e487b7100000000000000000000000000000000000000000000000000000000600052603160045260246000fd5b6000610d9282610960565b915063ffffffff8203610da857610da7610cbd565b5b60018201905091905056fea2646970667358221220847a8b0adc71d7bad956e57388af4d72ef362f12ef48e6f7df9004c79ac1547b64736f6c63430008110033",
  "linkReferences": {},
  "deployedLinkReferences": {}
}