{
  "_format": "hh-sol-artifact-1",
  "contractName": "Splitwise",
  "sourceName": "contracts/mycontract.sol",
  "abi": [
    {
      "inputs": [
        {
          "internalType": "address",
          "name": "",
          "type": "address"
        },
        {
          "internalType": "address",
          "name": "",
          "type": "address"
        }
      ],
      "name": "IOUs",
      "outputs": [
        {
          "internalType": "uint32",
          "name": "",
          "type": "uint32"
        }
      ],
      "stateMutability": "view",
      "type": "function"
    },
    {
      "inputs": [
        {
          "internalType": "address",
          "name": "creditor",
          "type": "address"
        },
        {
          "internalType": "uint32",
          "name": "amount",
          "type": "uint32"
        },
        {
          "internalType": "address[]",
          "name": "cycle",
          "type": "address[]"
        },
        {
          "internalType": "uint32",
          "name": "cycleAmount",
          "type": "uint32"
        }
      ],
      "name": "add_IOU",
      "outputs": [],
      "stateMutability": "nonpayable",
      "type": "function"
    },
    {
      "inputs": [
        {
          "internalType": "address",
          "name": "debtor",
          "type": "address"
        },
        {
          "internalType": "address",
          "name": "creditor",
          "type": "address"
        }
      ],
      "name": "lookup",
      "outputs": [
        {
          "internalType": "uint32",
          "name": "ret",
          "type": "uint32"
        }
      ],
      "stateMutability": "view",
      "type": "function"
    }
  ],
  "bytecode": "0x608060405234801561001057600080fd5b50611051806100206000396000f3fe608060405234801561001057600080fd5b50600436106100415760003560e01c8063713584a6146100465780637a8790b414610076578063b2c89d5014610092575b600080fd5b610060600480360381019061005b9190610aa4565b6100c2565b60405161006d9190610b03565b60405180910390f35b610090600480360381019061008b9190610ca3565b610158565b005b6100ac60048036038101906100a79190610aa4565b610800565b6040516100b99190610b03565b60405180910390f35b60008060008473ffffffffffffffffffffffffffffffffffffffff1673ffffffffffffffffffffffffffffffffffffffff16815260200190815260200160002060008373ffffffffffffffffffffffffffffffffffffffff1673ffffffffffffffffffffffffffffffffffffffff16815260200190815260200160002060009054906101000a900463ffffffff16905092915050565b6102286040518060400160405280600b81526020017f6375727220616d6f756e740000000000000000000000000000000000000000008152506000803373ffffffffffffffffffffffffffffffffffffffff1673ffffffffffffffffffffffffffffffffffffffff16815260200190815260200160002060008773ffffffffffffffffffffffffffffffffffffffff1673ffffffffffffffffffffffffffffffffffffffff16815260200190815260200160002060009054906101000a900463ffffffff1663ffffffff16610832565b61026d6040518060400160405280600d81526020017f616d6f756e7420746f20616464000000000000000000000000000000000000008152508463ffffffff16610832565b826000803373ffffffffffffffffffffffffffffffffffffffff1673ffffffffffffffffffffffffffffffffffffffff16815260200190815260200160002060008673ffffffffffffffffffffffffffffffffffffffff1673ffffffffffffffffffffffffffffffffffffffff16815260200190815260200160002060008282829054906101000a900463ffffffff166103079190610d55565b92506101000a81548163ffffffff021916908363ffffffff1602179055506103f56040518060400160405280600a81526020017f6e657720616d6f756e74000000000000000000000000000000000000000000008152506000803373ffffffffffffffffffffffffffffffffffffffff1673ffffffffffffffffffffffffffffffffffffffff16815260200190815260200160002060008773ffffffffffffffffffffffffffffffffffffffff1673ffffffffffffffffffffffffffffffffffffffff16815260200190815260200160002060009054906101000a900463ffffffff1663ffffffff16610832565b60005b82518163ffffffff1610156107f9576104188163ffffffff1684516108ce565b61047c6040518060400160405280600b81526020017f726571756972656d656e740000000000000000000000000000000000000000008152508263ffffffff1685516001856104679190610d55565b63ffffffff166104779190610dc6565b61096a565b6105a46040518060400160405280601081526020017f726571756972656d656e7420636f6e7400000000000000000000000000000000815250600080868563ffffffff16815181106104d1576104d0610df7565b5b602002602001015173ffffffffffffffffffffffffffffffffffffffff1673ffffffffffffffffffffffffffffffffffffffff16815260200190815260200160002060008687516001876105259190610d55565b63ffffffff166105359190610dc6565b8151811061054657610545610df7565b5b602002602001015173ffffffffffffffffffffffffffffffffffffffff1673ffffffffffffffffffffffffffffffffffffffff16815260200190815260200160002060009054906101000a900463ffffffff1663ffffffff16610832565b8163ffffffff16600080858463ffffffff16815181106105c7576105c6610df7565b5b602002602001015173ffffffffffffffffffffffffffffffffffffffff1673ffffffffffffffffffffffffffffffffffffffff168152602001908152602001600020600085865160018661061b9190610d55565b63ffffffff1661062b9190610dc6565b8151811061063c5761063b610df7565b5b602002602001015173ffffffffffffffffffffffffffffffffffffffff1673ffffffffffffffffffffffffffffffffffffffff16815260200190815260200160002060009054906101000a900463ffffffff1663ffffffff1610156106d6576040517f08c379a00000000000000000000000000000000000000000000000000000000081526004016106cd90610e83565b60405180910390fd5b81600080858463ffffffff16815181106106f3576106f2610df7565b5b602002602001015173ffffffffffffffffffffffffffffffffffffffff1673ffffffffffffffffffffffffffffffffffffffff16815260200190815260200160002060008586516001866107479190610d55565b63ffffffff166107579190610dc6565b8151811061076857610767610df7565b5b602002602001015173ffffffffffffffffffffffffffffffffffffffff1673ffffffffffffffffffffffffffffffffffffffff16815260200190815260200160002060008282829054906101000a900463ffffffff166107c89190610ea3565b92506101000a81548163ffffffff021916908363ffffffff16021790555080806107f190610edb565b9150506103f8565b5050505050565b60006020528160005260406000206020528060005260406000206000915091509054906101000a900463ffffffff1681565b6108ca8282604051602401610848929190610f84565b6040516020818303038152906040527fb60e72cc000000000000000000000000000000000000000000000000000000007bffffffffffffffffffffffffffffffffffffffffffffffffffffffff19166020820180517bffffffffffffffffffffffffffffffffffffffffffffffffffffffff8381831617835250505050610a09565b5050565b61096682826040516024016108e4929190610fb4565b6040516020818303038152906040527ff666715a000000000000000000000000000000000000000000000000000000007bffffffffffffffffffffffffffffffffffffffffffffffffffffffff19166020820180517bffffffffffffffffffffffffffffffffffffffffffffffffffffffff8381831617835250505050610a09565b5050565b610a0483838360405160240161098293929190610fdd565b6040516020818303038152906040527fca47c4eb000000000000000000000000000000000000000000000000000000007bffffffffffffffffffffffffffffffffffffffffffffffffffffffff19166020820180517bffffffffffffffffffffffffffffffffffffffffffffffffffffffff8381831617835250505050610a09565b505050565b60008151905060006a636f6e736f6c652e6c6f679050602083016000808483855afa5050505050565b6000604051905090565b600080fd5b600080fd5b600073ffffffffffffffffffffffffffffffffffffffff82169050919050565b6000610a7182610a46565b9050919050565b610a8181610a66565b8114610a8c57600080fd5b50565b600081359050610a9e81610a78565b92915050565b60008060408385031215610abb57610aba610a3c565b5b6000610ac985828601610a8f565b9250506020610ada85828601610a8f565b9150509250929050565b600063ffffffff82169050919050565b610afd81610ae4565b82525050565b6000602082019050610b186000830184610af4565b92915050565b610b2781610ae4565b8114610b3257600080fd5b50565b600081359050610b4481610b1e565b92915050565b600080fd5b6000601f19601f8301169050919050565b7f4e487b7100000000000000000000000000000000000000000000000000000000600052604160045260246000fd5b610b9882610b4f565b810181811067ffffffffffffffff82111715610bb757610bb6610b60565b5b80604052505050565b6000610bca610a32565b9050610bd68282610b8f565b919050565b600067ffffffffffffffff821115610bf657610bf5610b60565b5b602082029050602081019050919050565b600080fd5b6000610c1f610c1a84610bdb565b610bc0565b90508083825260208201905060208402830185811115610c4257610c41610c07565b5b835b81811015610c6b5780610c578882610a8f565b845260208401935050602081019050610c44565b5050509392505050565b600082601f830112610c8a57610c89610b4a565b5b8135610c9a848260208601610c0c565b91505092915050565b60008060008060808587031215610cbd57610cbc610a3c565b5b6000610ccb87828801610a8f565b9450506020610cdc87828801610b35565b935050604085013567ffffffffffffffff811115610cfd57610cfc610a41565b5b610d0987828801610c75565b9250506060610d1a87828801610b35565b91505092959194509250565b7f4e487b7100000000000000000000000000000000000000000000000000000000600052601160045260246000fd5b6000610d6082610ae4565b9150610d6b83610ae4565b9250828201905063ffffffff811115610d8757610d86610d26565b5b92915050565b6000819050919050565b7f4e487b7100000000000000000000000000000000000000000000000000000000600052601260045260246000fd5b6000610dd182610d8d565b9150610ddc83610d8d565b925082610dec57610deb610d97565b5b828206905092915050565b7f4e487b7100000000000000000000000000000000000000000000000000000000600052603260045260246000fd5b600082825260208201905092915050565b7f6379636c65416d6f756e7420746f6f206c617267650000000000000000000000600082015250565b6000610e6d601583610e26565b9150610e7882610e37565b602082019050919050565b60006020820190508181036000830152610e9c81610e60565b9050919050565b6000610eae82610ae4565b9150610eb983610ae4565b9250828203905063ffffffff811115610ed557610ed4610d26565b5b92915050565b6000610ee682610ae4565b915063ffffffff8203610efc57610efb610d26565b5b600182019050919050565b600081519050919050565b60005b83811015610f30578082015181840152602081019050610f15565b60008484015250505050565b6000610f4782610f07565b610f518185610e26565b9350610f61818560208601610f12565b610f6a81610b4f565b840191505092915050565b610f7e81610d8d565b82525050565b60006040820190508181036000830152610f9e8185610f3c565b9050610fad6020830184610f75565b9392505050565b6000604082019050610fc96000830185610f75565b610fd66020830184610f75565b9392505050565b60006060820190508181036000830152610ff78186610f3c565b90506110066020830185610f75565b6110136040830184610f75565b94935050505056fea26469706673582212207aa97b91013103b9fa63774b8c990d59f568e21f1305bb267d8b1be6b81fc27a64736f6c63430008110033",
  "linkReferences": {},
  "deployedLinkReferences": {}
}