{
  "_format": "hh-sol-artifact-1",
  "contractName": "Splitwise",
  "sourceName": "contracts/mycontract.sol",
  "abi": [
    {
      "inputs": [
        {
          "internalType": "address",
          "name": "",
          "type": "address"
        },
        {
          "internalType": "address",
          "name": "",
          "type": "address"
        }
      ],
      "name": "IOUs",
      "outputs": [
        {
          "internalType": "uint32",
          "name": "",
          "type": "uint32"
        }
      ],
      "stateMutability": "view",
      "type": "function"
    },
    {
      "inputs": [
        {
          "internalType": "address",
          "name": "creditor",
          "type": "address"
        },
        {
          "internalType": "uint32",
          "name": "amount",
          "type": "uint32"
        },
        {
          "internalType": "address[]",
          "name": "cycle",
          "type": "address[]"
        },
        {
          "internalType": "uint32",
          "name": "cycleAmount",
          "type": "uint32"
        }
      ],
      "name": "add_IOU",
      "outputs": [],
      "stateMutability": "nonpayable",
      "type": "function"
    },
    {
      "inputs": [
        {
          "internalType": "address",
          "name": "debtor",
          "type": "address"
        },
        {
          "internalType": "address",
          "name": "creditor",
          "type": "address"
        }
      ],
      "name": "lookup",
      "outputs": [
        {
          "internalType": "uint32",
          "name": "ret",
          "type": "uint32"
        }
      ],
      "stateMutability": "view",
      "type": "function"
    }
  ],
  "bytecode": "0x608060405234801561001057600080fd5b5061093c806100206000396000f3fe608060405234801561001057600080fd5b50600436106100415760003560e01c8063713584a6146100465780637a8790b414610076578063b2c89d5014610092575b600080fd5b610060600480360381019061005b91906104ec565b6100c2565b60405161006d919061054b565b60405180910390f35b610090600480360381019061008b91906106eb565b610158565b005b6100ac60048036038101906100a791906104ec565b610448565b6040516100b9919061054b565b60405180910390f35b60008060008473ffffffffffffffffffffffffffffffffffffffff1673ffffffffffffffffffffffffffffffffffffffff16815260200190815260200160002060008373ffffffffffffffffffffffffffffffffffffffff1673ffffffffffffffffffffffffffffffffffffffff16815260200190815260200160002060009054906101000a900463ffffffff16905092915050565b826000803373ffffffffffffffffffffffffffffffffffffffff1673ffffffffffffffffffffffffffffffffffffffff16815260200190815260200160002060008673ffffffffffffffffffffffffffffffffffffffff1673ffffffffffffffffffffffffffffffffffffffff16815260200190815260200160002060008282829054906101000a900463ffffffff166101f2919061079d565b92506101000a81548163ffffffff021916908363ffffffff16021790555060005b82518163ffffffff161015610441578163ffffffff16600080858463ffffffff1681518110610245576102446107d5565b5b602002602001015173ffffffffffffffffffffffffffffffffffffffff1673ffffffffffffffffffffffffffffffffffffffff16815260200190815260200160002060008586516001610298919061083d565b8563ffffffff166102a9919061086e565b815181106102ba576102b96107d5565b5b602002602001015173ffffffffffffffffffffffffffffffffffffffff1673ffffffffffffffffffffffffffffffffffffffff16815260200190815260200160002060009054906101000a900463ffffffff1663ffffffff16101561031e57600080fd5b81600080858463ffffffff168151811061033b5761033a6107d5565b5b602002602001015173ffffffffffffffffffffffffffffffffffffffff1673ffffffffffffffffffffffffffffffffffffffff1681526020019081526020016000206000858651600161038e919061083d565b8563ffffffff1661039f919061086e565b815181106103b0576103af6107d5565b5b602002602001015173ffffffffffffffffffffffffffffffffffffffff1673ffffffffffffffffffffffffffffffffffffffff16815260200190815260200160002060008282829054906101000a900463ffffffff1661041091906108a2565b92506101000a81548163ffffffff021916908363ffffffff1602179055508080610439906108da565b915050610213565b5050505050565b60006020528160005260406000206020528060005260406000206000915091509054906101000a900463ffffffff1681565b6000604051905090565b600080fd5b600080fd5b600073ffffffffffffffffffffffffffffffffffffffff82169050919050565b60006104b98261048e565b9050919050565b6104c9816104ae565b81146104d457600080fd5b50565b6000813590506104e6816104c0565b92915050565b6000806040838503121561050357610502610484565b5b6000610511858286016104d7565b9250506020610522858286016104d7565b9150509250929050565b600063ffffffff82169050919050565b6105458161052c565b82525050565b6000602082019050610560600083018461053c565b92915050565b61056f8161052c565b811461057a57600080fd5b50565b60008135905061058c81610566565b92915050565b600080fd5b6000601f19601f8301169050919050565b7f4e487b7100000000000000000000000000000000000000000000000000000000600052604160045260246000fd5b6105e082610597565b810181811067ffffffffffffffff821117156105ff576105fe6105a8565b5b80604052505050565b600061061261047a565b905061061e82826105d7565b919050565b600067ffffffffffffffff82111561063e5761063d6105a8565b5b602082029050602081019050919050565b600080fd5b600061066761066284610623565b610608565b9050808382526020820190506020840283018581111561068a5761068961064f565b5b835b818110156106b3578061069f88826104d7565b84526020840193505060208101905061068c565b5050509392505050565b600082601f8301126106d2576106d1610592565b5b81356106e2848260208601610654565b91505092915050565b6000806000806080858703121561070557610704610484565b5b6000610713878288016104d7565b94505060206107248782880161057d565b935050604085013567ffffffffffffffff81111561074557610744610489565b5b610751878288016106bd565b92505060606107628782880161057d565b91505092959194509250565b7f4e487b7100000000000000000000000000000000000000000000000000000000600052601160045260246000fd5b60006107a88261052c565b91506107b38361052c565b9250828201905063ffffffff8111156107cf576107ce61076e565b5b92915050565b7f4e487b7100000000000000000000000000000000000000000000000000000000600052603260045260246000fd5b6000819050919050565b7f4e487b7100000000000000000000000000000000000000000000000000000000600052601260045260246000fd5b600061084882610804565b915061085383610804565b9250826108635761086261080e565b5b828206905092915050565b600061087982610804565b915061088483610804565b925082820190508082111561089c5761089b61076e565b5b92915050565b60006108ad8261052c565b91506108b88361052c565b9250828203905063ffffffff8111156108d4576108d361076e565b5b92915050565b60006108e58261052c565b915063ffffffff82036108fb576108fa61076e565b5b60018201905091905056fea2646970667358221220c844c595e2be5c54d3ec099b7e89dd4050806429858fd9857bbe1046d3f261ab64736f6c63430008110033",
  "linkReferences": {},
  "deployedLinkReferences": {}
}